:100000000C94E6140C940E150C940E150C940E150D
:100010000C940E150C940E150C940E150C940E15D4
:100020000C940E150C940E150C94902E0C94022F1B
:100030000C940E150C940E150C940E150C940E15B4
:100040000C940E150C940E150C940E150C940E15A4
:100050000C940E150C940E150C940E150C94792915
:100060000C940E150C940E150C940E150C940E1584
:100070000C940E150C940E150C940E150C940E1574
:100080000C94C3290C940E150C940E150C940E159B
:100090000C940E150C940E150C940E150C940E1554
:1000A0000C940E150C940E150C940E151010FF00E8
:1000B000FEFAFE0E060606060EFEFAFE00FFFF0022
:1000C000FFBFFFCFC6C0C0C6CFFFBFFF00FFFF000E
:1000D000FE020202020202020262626200FFFF00EE
:1000E000DFC0C0D8D8D8DBDBDBDBDBDB00FF1010E8
:1000F000037D3E1E3E7E3E1E3E7E3E1E3E7E3D03F8
:10010000803A6E3B6E3A6E3B6E3A6E3B6E3A2E8094
:10011000037D3E1E3E7E3E1E3E7E3E1E3E7E3E1EBB
:10012000803A6E3B6E7A6E3B1E0E466370386C3EB4
:10013000008FC6E3F1B8ECBEEFBBEEBBEEFB6E008A
:10014000803B6E3B6E3B6E3B1E0F466371382C80CE
:10015000008FC6E3F1B8ECBEEFBBEEBBEEFB6E3B2F
:10016000803B6E3B6E3B6E3B1E0F466371386C3EB0
:100170003E7E3E1E3E7E3E1E3E7E3E1E3E7E3D033B
:100180006E3A6E3B6E7A6E3B1E0E466370382C8064
:100190003E7E3E1E3E7E3E1E3E7E3E1E3E7E3E1EFF
:1001A0006E3A6E3B6E7A6E3B1E0E466370386C3E46
:1001B0001E8FC6E3F1B8ECBEEFBBEEBBEEFB6E00EC
:1001C0006F3B6E3B6E3B6E3B1E0F466371382C805F
:1001D0001E8FC6E3F1B8ECBEEFBBEEBBEEFB6E3B91
:1001E0006F3B6E3B6E3B6E3B1E0F466371386C3E41
:1001F000037D3E1E3E7E3E1E3E7E3E1E3E7E3D03F7
:1002000000BAEEBBEEFA6E3B1E8EC6E3F0B8EC0011
:10021000037D3E1E3E7E3E1E3E7E3E1E3E7E3E1EBA
:1002200000BAEEBBEEFA6E3B1E8EC6E3F0B8ECBE33
:10023000008FC6E3F1B8ECBEEFBBEEBBEEFB6E0089
:1002400000BBEEBBEEFB6E3B1E8FC6E3F1B8EC00CD
:10025000008FC6E3F1B8ECBEEFBBEEBBEEFB6E3B2E
:1002600000BBEEBBEEFB6E3B1E8FC6E3F1B8ECBEEF
:100270003E7E3E1E3E7E3E1E3E7E3E1E3E7E3D033A
:10028000EEBAEEBBEEFA6E3B1E8EC6E3F0B8EC00A3
:100290003E7E3E1E3E7E3E1E3E7E3E1E3E7E3E1EFE
:1002A000EEBAEEBBEEFA6E3B1E8EC6E3F0B8ECBEC5
:1002B0001E8FC6E3F1B8ECBAEFBBEEBBEEFB6E00EF
:1002C000EFBBEEBBEEFB6E3B1E8FC6E3F1B8EC005E
:1002D0001E8FC6E3F1B8ECBEEFBBEEBBEEFB6E3B90
:1002E000EFBBEEBBEEFB6E3B1E8FC6E3F1B8ECBE80
:1002F000FFFFFFFFFFDFBF7FBFDFFFFFFFFFFFFF4E
:10030000FFFFFFFFFFFDFEFFFEFDFFFFFFFFFFFF03
:1003100008088FE1CED29ED21E21211ED29ED2CEBF
:10032000E18F84784B794B7387F1F187734B794B6D
:100330007884101003397D64E2E2E2E28E8E8E8EC4
:100340004C7D3903C09F3F7E006C6C6C6C006C6C04
:10035000000099C003397D7CF6929282929292DEDF
:100360007C7D3903C09F3F7E006C6C6C6C006C6CB4
:10037000000099C003397D4C8E8E8E8EE2E2E2E25F
:10038000647D3903C09F3F7E006C6C6C6C006C6CAC
:10039000000099C003E9EC0EEEEE0E06F0FCFE063E
:1003A000060CF107C08D0D404D0D00400F30606010
:1003B0007F3F8FE003E9EC0EEEEE0E06F01C1E7E92
:1003C0000E1CF107C08D0D404D0D00400F38707FA1
:1003D00078388FE003E9EC0EEEEE0E06F00C060620
:1003E000FEFCF107C08D0D404D0D00400F3F7F60BA
:1003F00060308FE007F1FCFE06060CF00200B0B2A0
:1004000002B0B103E08F3060607F3F0F607077779C
:10041000703797C007F11C1EFE0E1CF00200B0B230
:1004200002B0B103E08F38707E78380F6070777754
:10043000703797C007F10C0606FEFCF00200B0B260
:1004400002B0B103E08F3F7F6060300F607077775C
:10045000703797C008080096CDCDEBEBEBF73F4F18
:10046000713E410F3F7FF7EBEBEBCDCD9600FCF2F9
:100470008E7C82F0FCFE0A1003F90472EAFA720420
:10048000F903FCF9F2F4F4F4F4F2F9FCFF0371F867
:1004900072060CF903FFFFFCF8F0F4F6F3F9FCFF29
:1004A000FFFFFF00060600FFFFFFFFFFFFF0F4F471
:1004B000F0FFFFFFFF03F90C0672F87103FFFFFC6A
:1004C000F9F3F6F4F0F8FCFFFF813C66C2C2663C2B
:1004D00081FFFFFFFF007F7F286B03FF01080310F0
:1004E0001040C03EFE81FF9CFFBEFF3EFF76FFF640
:1004F000FF7CFFF9FF72FE74FC74FC08F8F0F080DA
:100500008080FF3FFF67FF6BFF73FF7FFF78FF7304
:10051000FF76FF76FF70FF33FF81FF4C7F5E7F40E9
:100520007F0000FEFE01FF3CFF7EFF7EFFF6FFF630
:10053000FF7CFFF9FF72FE74FC74FC08F870F04059
:10054000C07F7F80FF3EFF67FF67FF7EFF78FF73FE
:10055000FF76FF76FF30FF80FF4C7F9EFFBFFF805E
:10056000FF8080F0F008F874FC74FC72FEF9FF7CE8
:10057000FFF6FF76FF3EFFBEFF9CFF81FF3EFE4081
:10058000C0407F5E7F4C7F81FF33FF70FF76FF7638
:10059000FF73FF78FF7FFF73FF6BFF67FF3FFF80F5
:1005A000FF40C070F008F874FC75FD73FFF9FF7C24
:1005B000FFF6FFF6FF7EFF7EFF3CFF01FFFEFE0021
:1005C0000080FFBFFF9EFF4C7F80FF30FF76FF76ED
:1005D000FF73FF78FF7EFF67FF67FF3EFF80FF7FAF
:1005E0007F0C103EE38101011903868C888870001E
:1005F00000FD93988EA0F31E0000007CC60202024C
:1006000032060C181010E0FE939F80D054F6B2B35F
:100610009FF1003EE38101011903868C88887000F8
:1006200000FD93988EA0F31E0000007CC60202021B
:1006300032060C181010E06E93B37A68CC90B39F1A
:100640007507007CC682020A1A020684C44C78FC34
:10065000B29399CCE080CF790000003EE381012184
:10066000311B8AEEBC887800001F202161474D6451
:100670003C00007088888C860319010181E33E00EC
:1006800000001EF3A08E9893FD0000E01010180CDF
:100690000632020202C67C00F19FB3B2F654D0804B
:1006A0009F93FE7088888C860319010181E33E00C8
:1006B00000001EF3A08E9893FD0000E01010180CAF
:1006C0000632020202C67C0007759FB390CC687A9E
:1006D000B3936E784CC48406021A0A0282C67C0068
:1006E000000079CF80E0CC9993B2FC7888BCEE8A88
:1006F0001B31210181E33E00003C644D4761212014
:100700001F00003CFFFFFFFFFFFEFCFCFCF8F06C4D
:10071000FEFFFFFFFFFFFFFF7F0500F0F8FCFCFC82
:10072000FEFFFFFFFFFF3C00057FFFFFFFFFFFFF16
:10073000FFFE6C0A1000F8F8FCFCFEFEFFFEFFFE58
:10074000FFFAFFC4FEF8FC00F800000001010303FB
:1007500007077F070F030701030001000005088159
:100760009D8181819B8181819F85859191919D95BD
:10077000818181E1E7818181919185858581918563
:100780008585F9F981818181958181819195818129
:1007900081E34181C5E3EBBFFDBFEBC38D8581C321
:1007A000F1918585F10808FFFFFFFFFFFFFFFF00C4
:1007B00008FC0008F80008FC0129E04008C04018C7
:1007C0000C40081E40087F7C08470C2C1706663634
:1007D000F303E611020F99837FCD803CC9C080638B
:1007E000C0C02146E43740E017603F17600107783A
:1007F000C0070800030E307602929510B5059504E7
:100800007502923417B41192901101700F85500A3D
:1008100050096F0F85AE11AC084C036B08076B00D5
:1008200007AA00480D87628306A1128051C000FF0D
:10083000007C00007F04FF0340FF0100C020800215
:1008400000000200F0C03FF0D93F00180000020095
:100850000000000001000000000003000003000190
:100860007F00007F000000800101E00100E00178CE
:1008700004007F00007F000015019463B30573003E
:100880008B92636F10CAAE10A8056709036708034F
:1008900086E666018D451745158526650194C500D8
:1008A000A413A30F830DA20D828A21014012FF0021
:1008B0000000000000000000F7103C9007101E042C
:1008C0009006041004FC310500112401990624113E
:1008D000000033018011AC2A99FE3F10FC3F3079B3
:1008E000F81303FF93FFFF13FFFF33000000000026
:1008F00080000080FFC4F816017517D4B213B00A47
:1009000090098F37AF164D0C4D0A4D084D064D041A
:100910006C00978B3388512805A8016800978737AA
:10092000A5128348420CC201A10FFF0060000060C5
:1009300000006000806100806100FCE107FCE127AD
:10094000806100816110830100BF6108BFE1018007
:10095000E10180E103806100806108800100806125
:100960002080610000000C00000F00000FFFF30F5B
:10097000FFFF0F770B14770A14550E550C1502B0B4
:100980000970088D4E13AD0C8B31A90E69088D8945
:100990006288EC680085A7098762241184E944060F
:1009A0004405C4044402A316630DC3A2088227FFB2
:1009B0009EFFFF00007040007000C07004E07000F7
:1009C000F07040F870400C70FFFF73001070001062
:1009D00070040070040070FCFF7F00007000007065
:1009E00000A071A0EA71E0CE7F0F007E00006000E1
:1009F000000700800F1FE0FF771714770403B50787
:100A0000B4013112510A5106500E6F14D48CACACA3
:100A10000A8CA36B14D28B036A14D28A0DA90147E6
:100A20000E470DA70C07008625850B4302C117A0B2
:100A300000FFF0FFF1F0FFF13000E03000E07074F3
:100A4000F17074F17077F07074F07074F07074F08D
:100A5000F075F07074F07060F07074F07037E070E2
:100A600034E07034E07034E1F0B5E10000E40000FF
:100A7000E00000E89A97EA9A97EB5610760912760A
:100A80000812760712510F9127B007AF0E8F288DED
:100A900028AC0C8B27C9104908A907680E84671475
:100AA000C48728660E848528A3144310230C430AA8
:100AB000A3060101FFFFFF071F4004704006974097
:100AC0000697400197400097C001B700009700F8D3
:100AD000D70F7801000821000821000CFFCF9F00EC
:100AE000000000000000CC0088CE0000C00C00C058
:100AF0000C00C00C00C07C00C03800F000770D175F
:100B0000770C1775160C5416B4085113B003AC14B7
:100B10004C0B4C0A4C098C446C00966B00968A571F
:100B2000AA016A00962716A60543100200A111C16A
:100B300005FFFFFFFF0003F0000300FCFB07FCFBC9
:100B4000FFE4F3FFE4F30764F00764F00764F007E1
:100B500064004064510064D00764D04764D007E467
:100B6000D117E4D10700D34700D00300D013000011
:100B7000009FFE071FFE071FFE07750A127504106F
:100B8000750310540754045403B307700883AB175C
:100B90008B6F6B0883AB076A16C5AA0DA70186CBBE
:100BA00086E486E3C503231783E183E04210420F06
:100BB000420EA20C0206FF0000FC00001C000078A0
:100BC00000007000000000000000000001000000B4
:100BD0000000000006FFFF7FFFFF7F000000000015
:100BE0000000000000C00000C08001808101808101
:100BF0008007E08007E08FC7E18FE7E18FF761B6FC
:100C00000C550D5410140172108572008D711085F1
:100C1000B105B10471008D70170CB013CE0E894E62
:100C2000892AA909892729016700944116A115FF7E
:100C3000867F7FC6FFFFC60F0CCE0F0CC68F0DE65A
:100C40008F1DC69F8DC88F0DC0CF1DE08F0DC79F14
:100C50008DC78F0DC7CF1DC78F0DC79F8DC08F0D3F
:100C6000C0CF1DFE8F0DFE9F8D06800D02C01D00A2
:100C7000800146880D06808D771703B515B508905D
:100C8000054F0E8CAC4B14090186EE45F7241484F5
:100C9000ECA4E04310430FC21781E5A100A017A008
:100CA0000F80C3FF00060300060300060300060BC7
:100CB000302603300603F00627F40603300613300F
:100CC0002643300603300603B40703B0270330067B
:100CD00003300603300603342603300603300603D0
:100CE0003000003020003F2603BF2603770D177722
:100CF000070F770213760D1676020F750D15350363
:100D00001500AE02AD0E8B274816C815A813880D26
:100D10008807A806471445154512A40EA40C83EFB6
:100D200083EB4213FF1F03301E037030036336034F
:100D300063660366663E66C63C63CC18318C9931A7
:100D400098811818C31830C30C30660C3066060042
:100D50003C06003C03C01803C0991180810100C308
:100D60000000C300006600077E07073C07770013FA
:100D7000760012551235115501B40BB1035014AF62
:100D8000144F078B31CB078A1089328811671405FD
:100D9000040BA202A1118100A00BFFFDFF07FFFFC2
:100DA00077000074FEFF75FEFF753E804506805D8E
:100DB000B6BF5DB6BF5DB63140B6F57FBEF57FBE4E
:100DC000B57106B471F6B77DF6B77D36BC7116A065
:100DD0007116AD7136AD7116AD7186BD71B601700B
:100DE000B6FD73771115770E125505940CB10C51A1
:100DF0000A8F0B6E09062D13CD0E8C0E8A03A90BDC
:100E00004605A60385F7451485E0A200A017001546
:100E1000A041FFFE8FFFFFBFFF003898001098FE33
:100E20009399FEBB991893991B939943BB994F9340
:100E3000997F93991FBB99DF9301C79301F1BB1F62
:100E4000FC931F0E93110EBB117893116383110F46
:100E5000831130831106FF01FFFF3B7715157711D2
:100E600015770711770014760E16760A16150CB54D
:100E70000054045302B117D104B0138EF54E038D04
:100E8000714D05AA0B4905486284F684F584F28405
:100E9000F1A215200CA080FFDC1D40DCFD7F0C1CA6
:100EA00040001C40000C401F18F83F183EFB007F1C
:100EB0000B0063013860037C6003FE6001FE70C1BB
:100EC0000070C30078FF007F7F007F0F0070030079
:100ED00040033C40017E0001FF0081FF01FFFFFF56
:100EE000771717B61596D11603730D0D4E124C07D2
:100EF000AB04A913A9018862A6164610460765002F
:100F000005C4172415A40C8441834D4013804180EF
:100F100080FF0000000000E00000E01C000038003E
:100F200000F13F00E07F0007E0E707E0E7E0E7E7E8
:100F3000F8E7E718E8E700E0C720F0CFF0FFCF18A8
:100F4000FCCF03C0CF0B84CFFF8FCF18980100C018
:100F50000120D001F7FFFFF7FFFF770B177704178A
:100F600076140F351295E41501540CB4085405910C
:100F7000E4500AB00750038E94AD088DE44CEC4C5D
:100F800085AA01879487B3A017C016A015FFFFFF9D
:100F9000FFFF00FF3F00FC0F00F007C0E0C7FFE0CD
:100FA000C71FC03F00C03F00870118870118BF015D
:100FB000FFBF03038001008019008019F08F03F642
:100FC000CFC336C0C730E0073CE0010CF03900FC6D
:100FD000FF00FFFFFFFF1501520B520AB10B700E0D
:100FE0000990266F110C6F0E088F298EECCD0E8C98
:100FF000ECAB16AA164A0F4A0E4A0D864D26E3841C
:10100000E6A309FF00FC1F00FEFF7067F0386600D2
:10101000BC66003E6E037E6F03386603B166033321
:101020006603776703376603B166033066033800EB
:1010300003382003FEFF03FEFF1F00C03F00000037
:10104000000080004080C7FFFFC7FFFF77121477C2
:101050000C1477081777071777061795AF95E615DD
:1010600001B411940EB40993EE92E64F0F4F0E8F18
:10107000C62F01AB164B07A7164707A316A30B43B2
:1010800007C016FF00000000000043FE0718FEC75F
:1010900018FEC7180006F80F06F80F7E180C7E0021
:1010A0000C1E000CC6000CF6180CF6F83FC6F83FF4
:1010B0001F180C7E184C66180C06180CC7000CF68E
:1010C000004C30000C003A0C073A0E8F771711775E
:1010D00013117709077701147601141504B4175218
:1010E000145116B017D013AF054E164D14AC132C77
:1010F0000C8C85AB094A144916A81786738536856A
:10110000458320FF000000474434070030070030CB
:10111000070030070030070830FFFF3FFCFF3F802B
:1011200001308001308319309119328019308419CF
:101130003880193081193280193084593080193043
:10114000901931001800C0193CC0193C5304510ECD
:10115000AF134D028CEA8CE94B11AB0DAA168A73C2
:101160008A2BCA062A00A91386EC660B0486E3A51F
:1011700011A545400A0001FF00000000000000002A
:101180000000000007002007004C00000C00000CCD
:1011900060C30C60C30C60C30C60C34C01C00C0185
:1011A000C00C39C00C39C00C38C00C00C02C00C0B9
:1011B0000C00C00C00C00000C00C00DF6C00DE6C36
:1011C00077161477151476161476151476080A1502
:1011D0000AB410B3089215B202AC118C856C0005EC
:1011E000CA2BA71547084705861685152301A20AAD
:1011F000FF3000383F80393080390080B90780994E
:101200000F80592F825900901900901900C01900C1
:10121000C01900E11908E0190080390300780300C3
:1012200058FFFF19FFFF190000B80000B8000000C8
:101230000000000300FC0700FC76171776161776EF
:1012400015171513B4019016B0158D164A0DAA0383
:1012500089578975A908A7178716450945054416B2
:10126000440383242301A111400FC001FF81FF7FAC
:1012700080FF7F98C160FEC160FEC16286C3668444
:10128000C162B1E17231E062FBFF66FB3F6210A216
:10129000731022631E67673E226302B273FA2363F0
:1012A000F86767F823633DB273303203007607FFB7
:1012B0000703FFFFAB771717760316760216760142
:1012C00016760016B515150752029101AE134D059D
:1012D0002C0AAC086B1007AB038B204A104803485C
:1012E000018702A613A50B856344098374C20D818F
:1012F00000FF000070F80070FCFC7F06FC0F067E0B
:1013000000E67FE0E671F87670FE76F0077EFF0378
:101310001EFF01DE8101C681E1F619ECF619ECF63B
:1013200081EDF681EDF681ED86C1EDBEC1EDBE83A6
:10133000E10080E1FF8FEDFF8FFD77140A76001347
:101340005512740907D10EAF0C4E0F4C124C0B4CBA
:1013500005AC032B164A07AA05080AA803870F86BF
:101360001165170585138415A411A40F822981081E
:10137000FFE00130E70130C70130DFFF379FFF3763
:10138000BF07303F0030FF503CFFFF3FFFFF23000F
:10139000E02000E034409E290F9E210F1E230F1EE7
:1013A000270F1E26EF0728EF07200F66300FE031CA
:1013B0000FF807FFFFFFFFFFFF7604059412540CA0
:1013C00093107108055006AE17AE062C018B13CB97
:1013D0000B4B86AA14681305A70DA616864C460665
:1013E000440563090482E94203A10E0001FF0200E3
:1013F000000300000000FC0000FED402FE003800E4
:10140000013800003000241D00001C0001D820001D
:10141000D80004D80800D80001C002F1C100FFFFC5
:1014200008FFFF00C00720000000000080000080CF
:10143000FF27C9FF07C0760804760604B513B51068
:10144000B50D9586150293868E84C869A70B47084B
:101450004705854A6417054211A20E2115A000FF19
:10146000000300018301808381008309118303004D
:10147000833F02337C003300383EFE7800FF00805B
:1014800003001F00803F00803100C06000C0680082
:10149000E0E0007EC21B3E821B3088010008000095
:1014A00020003020C07980C477120577E0055612FD
:1014B0009600B5059410B4099311CD0A0A0A270ABB
:1014C000A213A117A1E74010400FA000FFC40040E5
:1014D000C00080C00000C85615090600FF0780FE46
:1014E000079138000000600000E00000C000418269
:1014F000010093030403030003001047000000C031
:101500000400D10000000100000100000300000BF6
:10151000A2E40300E01516B509B503701704B01472
:10152000CE0A6B000DA600830583248322A212A29B
:101530000E20178001FF0000700000F00000F00096
:1015400000F000F3FF00F3FF00F30702F30388F35A
:101550003180F33880738C8033868033C3FC83C141
:10156000FCC3E00060E00030F00018F0FE0FF8FE71
:1015700007F80000FC0000FC00E0FF01F0FF770C22
:101580000A77000A150EB506531251134F148F0C2B
:101590004D15AD0E8D0C6D0607AC0BAC0A4B168BC2
:1015A0001049178912670106A615C60384EB84EA61
:1015B0002311A017FFE00300E0030000000007D89C
:1015C000F607D8F60018F0E01FF0F8FFFFF8FFFF6D
:1015D000C00000C0C000C7C021C78703C007078084
:1015E000000EF8000CF800C00000C000006007808A
:1015F00060070400070080FF01C0FF03C176040EEE
:1016000073010EB217AE062B098A85A9166710045E
:1016100046B24610460E660A05660804660604A52C
:10162000108546A30AA3E7C216822B8266020180B8
:101630000AFF003C30001CE0000CC00F0CC00F0C77
:10164000000CACE10CCC010E8C010E9C050C8C0145
:101650000C8C010C8C110C80010CFC010CFC41FC6D
:10166000FF01FCFF11008001078001078005078052
:10167000C10700D00700C0D7A9CA771315770405A2
:10168000B317B20CB20872000B4E094E084E074E4B
:10169000064E054E046D0E0C6D0D0C6D0C0BAC055D
:1016A000890C870E860D2601C417820C0201810D5C
:1016B000A017A016800EFF00000000000000000030
:1016C0000783C107000003000001000001000001C2
:1016D00000000100000138000338801B7CB03DFE93
:1016E000783DFE781938303DEE783DFE7819383077
:1016F0003DEE783DFE781938303D7C787D7C7C77F6
:10170000121477061496129606B513B505B20EB2EA
:101710000AAF0EAF0A6D0C0AC92C221742104208FC
:101720000201FF807F00000000070000070000FFAB
:10173000FF1FFFFF1F000000000000000000F8E195
:10174000FFF8FFFF001F00000E00000000C0181887
:10175000FFFF1FFFFF1F00000000000000000080CF
:10176000C100C0C101FF80FFFF08FF770B0676169E
:1017700008B62B15E3350191896F01064E0EAE0DAB
:101780004E0A4E08AB17691605492C4909880D8881
:1017900084860EA60D640A0383E7A20EA20781E7E2
:1017A000C101FF016700FF610001E01F30E63F302B
:1017B0000660780600FFE7FFFFE7FF03E60001662B
:1017C00000E067F8F067FE1C00FF0C00000000005E
:1017D000FFE73FFFE73F0060000060000060FE00A1
:1017E00060FE0060C0FFE7FFFFFFFF770C17770B7D
:1017F00017760F0D962BD515551215E2731605B3F6
:10180000466F00054E124E068B104B038A00A81639
:10181000A80766080445122501A411420481AFA05F
:1018200012A002FF0018C00018C00E1FF09F07E1B1
:10183000FF0780FF3F04FF3F000000100000000092
:1018400000C00000C00000FEFF87FFFF87013806D0
:101850000010060000067800FE7F82F807000000F6
:10186000000000000000FFCFCCFFCFCC77170A7735
:10187000040776040695E0B304710B089107AF07DF
:10188000AF010B01A90DC40C8311A20E2102A00F00
:10189000804DFFC0C1FFE0CDFFB0CD0087CD000778
:1018A000CD0080CD03FCDD03FCCD0F0CCC8F0CCC28
:1018B000800CCCC08CCFC08CCFF08CEFF18CCF01E2
:1018C0008CCF038CCF039CCF0F8CCF8F8C0F80805D
:1018D0000FC0800FC0FFFFF3FFFFF3760606710411
:1018E0000850128C0D4B15AB0D6B090A8B86A91293
:1018F000A90488844612850C2410A40CA4078346EE
:10190000A303C2160201FF60FEE760FEE76100006C
:10191000600000600018E0CF1FE0CF8F7486816008
:1019200000C06000C0E0FFCFE0FFCF6600006000B5
:10193000006000006000006000007460F86070F8F3
:10194000607800007C00007E00FF7FF8FFFFF877E2
:101950000F067600055504B31671040610169002A2
:10196000AE11AE026C01088B024911892CA801C787
:1019700011A70867040786022411440884E0A10027
:10198000FF000000000000000F00FFFF07FFFF3F07
:10199000FFFF3F003E00001C000000800000C00070
:1019A000FFFFFCFFFFFCFF010C00000C00000C001F
:1019B000000C00000C00F00C00F00C00F00000F037
:1019C0000000F03F7FFE7FFFFF771010770F0F774B
:1019D000060A76010AB10B3016AD06AC13AB00C98E
:1019E0000F490D4909A51782100201410AA106FFFE
:1019F000000000000000000006AFFE0F0FFE1D0FEC
:101A000000C00000C00000F00000F8F855FFF00032
:101A1000060300000300000700000FFC011FFE0F7B
:101A200018060E00001C0000000000C00060C0800E
:101A300061F0FFFFFFFFFFFF1501B308B014AC0812
:101A4000AC05A60D630703630503C2022200A006CE
:101A5000FF10082060606060400000000000181C5B
:101A60000E070330707070706000000000001C1ED4
:101A70000F070340404040404000000000001008B5
:101A8000040201000000000000000000000000004F
:101A9000000000000000000000000100020303023B
:101AA000000000000000000000000100020303022B
:101AB0000000000608001C1E1E0E00000C1E1E0C5E
:101AC00000001C1E1F0F06040C1810000000000070
:101AD0000000000508060E0E0C0002060E0C0006A3
:101AE0000F0F070303060C000000000000000000B9
:101AF00000000000000000000000000000000000E6
:101B00000000000000000001020304040401204062
:101B1000FFFFFEF8E0C08FFF7F7F3F3F1F1F0F0FCB
:101B20000F0F0F0F1F1F3F7FFFFFFFFFFFFFFFFF85
:101B3000070703030101000000000000000000008F
:101B4000000000000000000000C3FFFFFFFFFFFFD8
:101B50000000000000000000000000000000000085
:101B60000080C0E0F0F8FCFEFFFFFFFFFFFFFFFF7B
:101B700000808000000000000000000000000C1E3B
:101B80003F3F7F7F7F7F3FBF9FCF67331B99FDFC28
:101B9000000307070000101818180800000000F0E4
:101BA000FCFEFEFEFFF7F3FBFFFCFCFEFFFFFFFF6A
:101BB0000080C0C0E0E0F0F0F0B8B838787878F88D
:101BC000F3E7CFDF9FBF3F7F7F63C383A3A78FFF71
:101BD0000F1F3F7FFFFFFFFFFFFFFFFFFFEF8E1E87
:101BE000DC9DB9B3A78FFFFEF8C0E0F0F8FCFE3E25
:101BF000808080C0C0E1E1F3E7EFECECE1F3F7F6C1
:101C0000F0FFFFFFFFFFFFFFFF7F3F1F0F030000FD
:101C1000FCF0E0C08001071F3F7FFFFFFFFFFFFFD9
:101C2000FFFFFFFFFCF0E0C08081071F7FFFFFFF89
:101C3000FFFFFFFFFFFFFEFCFCF8F8F9F3F7F7FFEB
:101C4000DFDF9FBFBFFFFFFFFFFFFFFFFFFFFFFFC4
:101C5000FFFF7F7F7F7F7F7F7F7FFFFFFFFFFFFF94
:101C6000FFFFFFFFFFFFFFFFFF7F3FBFBF1F5F4F74
:101C7000FCC0007CFEC7D3732386FCF9F3E78F1FFB
:101C80007FFFFF03F9FDDD9DBCB83333000EE7F3A2
:101C9000FF7F3F1E1E8E8ECEFFFFFFFFFFFFFF3E2A
:101CA00080F3F1E4ECC99B33E3033F7F7E3C3C1CB3
:101CB000FDF9FB7F7F7F3FBF9FDF4F6F2733181EEC
:101CC0004FCFC78783030918183A3A7A7A7AFBF913
:101CD0000E060606030301010000000000000000DC
:101CE0000000010103030302060604040484848443
:101CF000000000C0701C0603311901030202020635
:101D00007404040CF8000000C0F0FCF6E7E7E7EF0D
:101D100000003FFFFFFF3F9FCF603080C60F1F3F97
:101D2000FFFFFFFFFF7FFF7FDF77DD77DD77DD7769
:101D3000FFF8E0830F3F7FF9CCE63399CC66008053
:101D40001F373D371D1F0D07030101010103070761
:101D50006F27B793DBC006EC4903078F9C1E3B3906
:101D60006C66F2D8C8E0B090C040008080008080EF
:101D7000F33674E18F3FFCF8FAFBF9FCFFFFFFFE3E
:101D8000FEFCFCFCF87979793939191909010181CE
:101D900080FE00E7F3F8FFFFFFFFFFFBFBF9F9F917
:101DA000F9F8F8F8FCFCFCFCFCFC7E7E7E7F3F3FF3
:101DB000FDFCF6F7E7E7E7C7C7C7C74743030303D9
:101DC0000303010101010100000000000000000008
:101DD000C0C0C1E1E1E1F1F1F0F8F8F8F8703020AD
:101DE00060C0800000000000000000000000000053
:101DF000FFFFFFF7F3F3F1F9FDFFFF0F0100000014
:101E000000000306000000000000000000000000C9
:101E1000DD7FC7030100000000000000000000801B
:101E2000FFFFFFFF1F0080FF0080C0E0F0FCFFFF0E
:101E300005070703000000000000000080E0F87FB5
:101E40003F0F03C0F0FCFFFFFFFFFF7F1F0F0701E5
:101E5000C0400040607070381804060383C1E0F091
:101E6000F87E7F3F9F8FCFC7E3E1707038F8FCFCAE
:101E700080C0C0E0E0F0F0F818CC66331B190D0C00
:101E800006060707030301010000000000031FFF0F
:101E90003F1F1F1F0F0F0703000FF8000000000077
:101EA0000000000000000000000000000000000032
:101EB00000000000000000000000010F080000000A
:101EC0000000000000000000000000000000000012
:101ED0000000000000000000000000000000000002
:101EE00000000000000000000000000000000000F2
:101EF00000000000000000000000000000000000E2
:101F000000000000000000000000000000000000D1
:101F10003C38000000000080F8FE0FE3FB1B0B0BB9
:101F20008BFBF3F7F6F6F60606ECECECECECECECDF
:101F3000ECECECECECECECEEE6F6F6F6F7F3FBFB97
:101F4000CBCBFBE30FFEF8801E332121339E000034
:101F50000080F8FF0FE0F8F9F9F9F9F9F9F9F1F370
:101F6000F3F3F3F0F0FFFFFFFFFFFFFFFFFFFFFFC3
:101F7000FFFFFFFFFFFFFFFFFFFFFFFFFFFF7F7F71
:101F8000FEE00FFFF880060600000000000F3FF0A3
:101F9000C607040407070707070707070707070718
:101FA000FFFFFFFFFFFFFFFFFFFFFFFFFFFFFFFF41
:101FB0000707070707078787070726860707C6F06B
:101FC0003F1F00808000000000000000030784C461
:101FD000E4E4E4E4E4E4E4E4C49C000FE7E7E7E7D6
:101FE000E7E7E7E7E7E7C7870F1F0FC7E7E0ECE49E
:101FF000E4E4E5E5E4C4040404070300C040C303CB
:1020000011000000000000000000FFFFFFFFFF398B
:102010003939FFFFFF0FE0E0EFEF0FFFFF183879CE
:10202000FFFFF703E0E0EFEF0FFFF9F0F0FCFDFD3D
:10203000FD0DECE0E0E000000121010000000000E7
:1020400080C0602060C080000000000C0C007EFE9C
:10205000803C3E1C1C1C1C1C0C0C0E0C0C0C0C0E96
:102060001E1C1C1C1C3C3E80FE7E00000000C0E0CC
:10207000E0C000000000030300000E1B3166C680B4
:10208000D060311B0E00003828380001471E382070
:10209000202020301010D0D01010901030202020A0
:1020A00020381E07010000060600000101000000A4
:1020B0000000000000001B2801FCFE02FA2222FAA8
:1020C00002FAAAAA8A02FA82BEBE02FA2AAABA8230
:1020D000FEFC0100FFFF06F656567606F6067E7EEB
:1020E00006F69696F6067646C77707FFFF0000FFCE
:1020F000FF0C2DEC2F0FEC4D8D0DED0CEDACAC2D40
:102100000CEF2C2DEC0FFFFF0000FFFF18DA5B5ADD
:10211000181BD85859DB18DB981EDE18DB5A5A5B9F
:1021200018FFFF00C0CF9F901714151510171454F7
:10213000575057D0D1D7D0D7D15D5C5F1F0F00402B
:1021400020FFFFFF0707E7E7676767676767E7E75E
:102150000707FFFF9F9FFFFF8787FFFF6767E7E78F
:10216000FFFF9F9F67679F9FE7E76767E7E7FFFFBF
:102170000707E7E7676767676767E7E70707FFFF3F
:10218000FFFFFFFF00007F7F6060606060607F7F17
:102190000000FFFF1919818179799F9F1818F9F9BB
:1021A00001019F9F7E7E81816161E6E60101FFFF63
:1021B00000007F7F6060606060607F7F0000FFFFE5
:1021C000FFFFFFFF060666666666E6E606067E7E9B
:1021D0006666E7E70606E1E11818E1E19E9E87875B
:1021E00066667979181887879E9E81819898878777
:1021F0009E9E86861E1EE6E6FEFEE6E69E9EFFFF8D
:10220000FFFFFFFF8686FEFE98989F9F1E1E000020
:102210006666191986860707E6E67F7F616187870C
:10222000606060601E1E87877F7F818179791F1FB4
:102230009F9F81819898E7E70707F9F99F9FFFFF24
:10224000FFFFFFFF1919E1E1F9F961618080E6E61E
:102250006666989861610606E7E7E0E09E9E1F1FAC
:102260007E7E6060808067671E1E999998989E9E0A
:102270001F1F79799F9F1F1F0606F9F99F9FFFFF78
:10228000FFFFFFFF60607F7F7F7F7E7E6161616116
:102290006666E7E71E1E1E1E19197F7F6161F8F84A
:1022A000E6E67E7E19198686989819190707E7E7EA
:1022B0006666E0E001011E1E060681818787FFFF3A
:1022C000FFFFFFFF0000FEFE060606060606FEFEF6
:1022D0000000FFFF0606FEFE1E1EE0E09E9E1F1F82
:1022E000191960601E1E878781819898E0E00707B2
:1022F0006666070760600000666601018787FFFF6A
:10230000FFFFFFFFE0E0E7E7E6E6E6E6E6E6E7E711
:10231000E0E0FFFFE0E0FFFFE6E6FFFFE1E1F8F8C5
:10232000E6E6F8F8F8F8E7E7FFFFE7E7F9F9FEFE79
:10233000F8F8E0E0E6E6E0E0E6E6F8F8FFFFFFFFA9
:10234000FF0F10FDFD3131FDFD01C9DDDDEDED4D6E
:1023500001FE04040606040406040404040404063E
:10236000030210FE0103060910FE01C9DDDDEDEDDB
:102370004D010306040404040406063010864D498A
:10238000CBC30000CF494D4D00CF4545CF00C7C856
:102390004847004FCB4B09C04F42C40F40CF4909BB
:1023A0004F808A4F08C0CACF4800CD0D0B61D39231
:1023B000B2300000438282F200F39191F30092B2B6
:1023C000B3F300F05350B00391F191000203020007
:1023D00003000003000302020200030202071000D0
:1023E0001038900004060000010301000010107C6A
:1023F0001010001C00000000000000001038100049
:10240000040E00000001000000000000800404072A
:1024100000000103010000000090C0840E070001CD
:1024200003070301002A18FE03F9FD0DFDF90DFD58
:10243000F9C3D9DDDDD1F1FD7D01C9DDDDEDEDEDC6
:10244000410D0DFDFD0D01EDED0179FDCDCD4903F2
:10245000FEFF007E7E7A6E6C38007C7E1A1A7E7CCF
:10246000007E7E60600E7E606C6E0E7E663C427EFC
:102470007E663C007E7E067E7C01FF010302020236
:102480000202020302020202020203020202020329
:102490000202020203020203020202020203020219
:1024A0000202020301232001FCFE02BAAAAAEA02E8
:1024B000FA2AAA8A028ADA72DA8A22FEFEFEFEFE70
:1024C000FC0180C00F1B1E1B0E0FFCF9FBFAFA7AF1
:1024D0003A9A02FEFEFFFFFE06F61616F606F757BC
:1024E000571707F7545514C4FDFDFCF800017CFE96
:1024F000EECEDEDC9900FFFFFFFFFFFCFD0DED2DB2
:102500002CED0CEF4F9C0DEC0FFFFFFFFFFFFF00CA
:10251000F2F6E4CD1971011F30270F8F8FCF6F0FA7
:10252000E8EBEAEAEBE8EBE8ECE9EBE8EFEFEFEFFA
:10253000EFE7F0211000F8F0FCF8FCE8FCC8FCF034
:10254000FC00FB0203020302030203020302030274
:102550000302030203020302030203020302030253
:102560000302030203020302030203020302030243
:10257000030203FCFF00FE000100030107037F01CB
:10258000070007020F020E020E020E020E020E02DA
:102590000E020E020E020E020E020E020E020E02BB
:1025A0000E020E020E020E020E020E020E020E02AB
:1025B0000E020E030F010F00071B1801FCFE02FAAA
:1025C00082BEBE02FA8A8AFA02FA4A4AFA02FA8AF3
:1025D0008AF206FEFC0100FFFF06F6264E86F6068E
:1025E000F656561606F686CE86F606FEFEFEFFFF69
:1025F00000F06307348584969485C445653585F479
:10260000F5F5F4F5F5F6F7F7F7F7F3F007081E3FE1
:1026100031313F1E8000323F3F3080C0103B3B379E
:102620003732803135353F3F1E80CE8F0C3C3F3FE7
:10263000803237373B3B90C01E3F37353D19808293
:1026400003333B3F8F801E3F35353F1E80123735A9
:10265000353F1E801118FEFF01FDFDC1C3C11D7D68
:10266000E1E17D3D81FFFEFF8000000000000000F1
:1026700000000000000000FF01030202020202024B
:10268000020202020202020301071001010101011C
:102690000101040404040404040210FE03030603FD
:1026A000FE06033410FE01FDFD35353DD9E53D75CF
:1026B000FDD921FDF5D5DD5981DDDDEDED419DDD56
:1026C000EDED410301FDFD3179EDC539FDF5D5DDB8
:1026D0005985DDD1D1FD7D01FE0306040404060603
:1026E00004040406040406040404040604040404A4
:1026F0000406040404040406040404060404040692
:10270000040404040604040404040406030C10FE78
:1027100007F309E5D5F5E509F307FE7FF0E3C4C843
:10272000C9C9C8C4E3F07FFE0FF7FBFDFDFDF58BC3
:10273000F70FFE7FFEFCF9F38787E3F1F8FC7F24B7
:1027400018FE03F9FD0DFDF90379FDFDD5D5DDD9A1
:10275000C3C1ED7D397DEDC10D0DFDFD0DEDE1FB3D
:10276000F3E74E18F0FF007E7E606C0E7E6A6A6EA4
:102770002C001E3E70703E1E003C7E6A6A6E2C006D
:102780007E7E606B690CFE030101030202020202FD
:102790000202020202030202020202030202020217
:1027A0000202030202020202020301000083918B73
:1027B0009883ACC8BCD5FFD5F08D14A1C881CFD902
:1027C000F1AF20005810F0F89C8E8783878E9CF81C
:1027D000F00000FEFF0303030303070EFCF80000F4
:1027E000FEFF0303030303070EFCF80000FFFF00D6
:1027F000000000000000FFFF0000FEFF83838383D2
:1028000083C7EE7C380000F8FC0E07030303070EB5
:10281000FCF800003F7FE0C08080C0E07F3FFFFF0A
:1028200001010101010101FFFF0000FFFF0C0C0C81
:102830000C1C3E77E3C100007FFFC0C0C0C0C0E0F9
:10284000703F1F00001F3F70E0C0C0C0E0703F1F1E
:1028500000007FFFC1C1C1C1C1E3773E1C00001F62
:102860003F70E0C0C0C0E0703F1F000000000001EA
:10287000FFFF01000000E6218A2266213322CF27D4
:102880009E283C2410151032CC320D221321080B47
:10289000000202020100090400000102020000051A
:1028A0002400100105240101010424020605240668
:1028B00000010705810310004009040100020A001D
:1028C00000000705020240000007058302400000E7
:1028D0000403090412010002EF0201404123368083
:1028E00000010102030141726475696E6F204C4C56
:1028F000430041726475626F79002218FE0379FD0E
:10290000FD85B5F57103F9FD3535FDF903F9FD0DCB
:10291000FDF90DFDF90379FDD5D5DD5903FEFF0164
:102920007E7E1A1A1E0C707E1A1A7E7C027E6060F1
:102930007E3E406E6E7676200C7E6A6A6E2C01FFBB
:102940000103020202030303020202020202030263
:102950000202020302020202020203020202020255
:1029600003012218FE0379FDFD85B5F57103F9FD1C
:102970003535FDF903F9FD0DFDF90DFDF90379FD7F
:10298000D5D5DD5903FEFF013C7E7E7E7E663C0090
:102990001E3E7060703E1E003C7E7E6A6A6E2C0099
:1029A0007E7E1A3E7E6C01FF0103020202020202D9
:1029B00002030202020202020302020202020203F4
:1029C00002020202030202020301273511241FBE84
:1029D000CFEFDAE0DEBFCDBF11E0A0E0B1E0E0E68E
:1029E000FFE602C005900D92A038B107D9F727E0A5
:1029F000A0E8B1E001C01D92AE39B207E1F714E1E1
:102A0000C6EED4E104C02197FE010E94A337C53E63
:102A1000D107C9F70E9426330C94AE370C940000FE
:102A20002F923F924F925F926F927F928F929F92DE
:102A3000AF92BF92CF92DF92EF92FF920F931F93CC
:102A4000CF93DF93CDB7DEB7E1970FB6F894DEBF33
:102A50000FBECDBF80910807882309F425C11092CD
:102A6000ED061092EC061092EF061092EE06109210
:102A7000FF060E94333284FF03C080EF9FEF06C041
:102A80000E94333287FF06C080E190E09093EF060A
:102A90008093EE068091040781119BC00E9433321F
:102AA00085FF4BC080E38093000180E190E090932C
:102AB000ED068093EC0681E08093FE06809100078E
:102AC000811130C08091020781112CC080910107D3
:102AD000811128C06091F2067091F306685F7F4F04
:102AE000E4E075956795EA95E1F78091F00690919D
:102AF000F1060197F4E095958795FA95E1F70E9424
:102B00000423811109C08091F4069091F506809705
:102B10009093F5068093F40681E08093FF068FEF93
:102B20009FEF53C08091F8069091F906813E2FEFF8
:102B300092070CF44EC0029748C00E94333286FFC1
:102B400048C080EF9FEF9093ED068093EC061092C3
:102B5000FE0680910007811130C08091020781112B
:102B60002CC080910107811128C06091F2067091FC
:102B7000F306685F7F4F54E0759567955A95E1F7C6
:102B80008091F0069091F1060C9674E095958795EA
:102B90007A95E1F70E940423811109C08091F4061F
:102BA0009091F50680969093F5068093F40681E067
:102BB0008093FF0681E090E008C08091F806909134
:102BC000F906803291052CF402969093F9068093D1
:102BD000F806109204070E943332182F187083FFF2
:102BE0000CC00E94333284FF03C01093CE0105C095
:102BF0001092020781E08093040784E00E945E2A1D
:102C0000882309F444C08091FA069091FB06892B31
:102C100081F58091000781112CC0809101078111FD
:102C200028C064E670E088EC90E00E94E8311092E1
:102C3000FF0681E080930007109203078BE08093EA
:102C4000060788E290E09093FB068093FA060E94C4
:102C5000333286FF03C080E290E006C00E94333228
:102C600085FF15C080EE9FEF9093F9068093F806DC
:102C70000EC080910807882351F081E080930207FD
:102C800090E19093090710920007809301070E943A
:102C9000333282FD09C01092020780910007882319
:102CA00019F081E0809303078091FD068823C9F025
:102CB0008091210780FD06C09091FC0681E0892764
:102CC0008093FC06809105078F5F8D3318F4809305
:102CD000050707C0109205071092FD0681E080935A
:102CE000FC068091FF06811104C0809104078823AF
:102CF000C1F0809121079091220787709927892B35
:102D000091F4809107078F5F982F93709093070736
:102D100080FD09C064E170E086E990E00E94E8313E
:102D200002C010920707209102078091FA06909145
:102D3000FB06211119C018161906B4F421E02093DE
:102D400000071092010720910307211114C0209160
:102D50000607222381F005969093FB068093FA06DE
:102D600021502093060707C097FF05C01092000767
:102D700081E0809301076091F2067091F3067B0178
:102D800038E0E30EF11C14E0F594E7941A95E1F7AE
:102D90000091F0061091F1060A5F1F4F84E015952F
:102DA00007958A95E1F7605F7F4F94E07595679589
:102DB0009A95E1F7802F0E940423B82E8091F8069F
:102DC0009091F9062091F4063091F506280F391FED
:102DD00045E0359527954A95E1F7215031091816B8
:102DE00019061CF080E090E002C08EE090E0280F11
:102DF000391F6901A4E0D594C794AA95E1F76091C1
:102E0000F2067091F3066E5F7F4FB4E0759567959B
:102E1000BA95E1F78C2D0E940423811110C06091B6
:102E2000F2067091F306635F7F4FF4E07595679546
:102E3000FA95E1F78C2D0E940423C82E02C0CC2401
:102E4000C3948091FA069091FB068090F6069090CC
:102E5000F706881A990AE5E095948794EA95E1F7D0
:102E600097FD03C080E090E002C081E190E0880E11
:102E7000991E64E0959487946A95E1F78091F00635
:102E80009091F106029674E0959587957A95E1F711
:102E9000682D0E94042381110FC08091F00690914B
:102EA000F1060A9654E0959587955A95E1F7682DB5
:102EB0000E940423D82E02C0DD24D3944091080739
:102EC0002091FA063091FB06442371F01216130686
:102ED0005CF0BB2049F08091FA069091FB06181631
:102EE00019060CF4B2C028C0213A5FEF35071CF078
:102EF0002350310902C020EA3FEF3093FB062093B4
:102F0000FA0680910207882399F0809109078823A7
:102F100021F08250809309070BC0842F90E0059721
:102F2000281739070CF49C013093FB062093FA060E
:102F3000442309F48AC0CFCFD11003C0BB2009F4C9
:102F400084C080910107882331F06EE170E080E554
:102F500090E00E94E8311092FB061092FA0610925F
:102F6000F9061092F80610920107109200071092CD
:102F700002078091F6069091F70635E095958795C2
:102F80003A95E1F70C9644E0959587954A95E1F7D7
:102F9000880F1092F6068093F7060E9433328076EF
:102FA000803609F47BC0A090F206B090F30660E191
:102FB000A60EB11CA4E0B594A794AA95E1F7809160
:102FC000F0069091F1060496B4E095958795BA9530
:102FD000E1F76A2D0E940423882E2091F00630919B
:102FE000F106285F3F4FC90114E0959587951A9522
:102FF000E1F76A2D0E940423982E2091F00630916B
:10300000F106255F3F4FC90124E0959587952A95E4
:10301000E1F76A2D0E940423881630F48091F406AB
:103020009091F5064497E4C7911038C08091F0065E
:103030009091F106F4E095958795FA95E1F76A2D60
:103040000E9404238111CFC729C02091F806309136
:10305000F906C90137FF04C088279927821B930B03
:103060000297C4F0809121079091220783709927DD
:10307000892BA1F4121613061CF42150310905C046
:103080002115310559F02F5F3F4F3093F9062093FA
:10309000F80604C01092F9061092F8066E2D802FE3
:1030A0000E94042381112CC08091F0069091F106BA
:1030B000E4E095958795EA95E1F76E2D0E9404234B
:1030C000882331F08091F4069091F506089614C09B
:1030D0008091F0069091F1060B9674E09595879596
:1030E0007A95E1F76E2D0E940423882349F08091A0
:1030F000F4069091F50608979093F5068093F406F0
:10310000209108078091FA069091FB06222321F076
:10311000D1100EC0009741F12091F6063091F706CC
:10312000D901A81BB90BB093F706A093F6061CC0F3
:1031300018161906CCF48091F2069091F3060896C1
:1031400064E0959587956A95E1F7880F1092F606E9
:103150008093F7061092FB061092FA066EE170E07B
:1031600080E590E00E94E8318091F8069091F906A0
:10317000009729F1C11007C02091F4063091F5069F
:10318000820F931F18C01092F9061092F8068091D2
:10319000F0069091F1060696807F3091FE0621E0C0
:1031A0002327B4E02B9F800D911D112455E0880F3B
:1031B000991F5A95E1F79093F5068093F406809154
:1031C000F6069091F70625E0959587952A95E1F703
:1031D0002091F4063091F50645E0359527954A95FE
:1031E000E1F73093F1062093F0069093F306809375
:1031F000F2068091040781110E94F0228091080755
:10320000882309F45EC08091EC069091ED061816B3
:10321000190614F4019703C0009729F001969093C2
:10322000ED068093EC068091EE069091EF0618165D
:10323000190614F4019703C0009729F001969093A2
:10324000EF068093EE066091E8067091E9064091E2
:10325000EA065091EB068091EE069091EF06840FFE
:10326000951F2091F2063091F306281B390B285147
:1032700031093595279535952795E091EC06F09124
:10328000ED06E60FF71F8091F0069091F1068E1B78
:103290009F0BCA979595879595958795860F971F4C
:1032A0009093E9068093E806CA01820F931F813448
:1032B000E1E09E0714F080E491E09093EB068093A8
:1032C000EA0608E0B0E1EB2EF12CB0E10B9F6001C3
:1032D000112415E020E1129FF00111248091EA06EB
:1032E0009091EB06805C9F4F959587959595879576
:1032F000B7010E948F37E81BF90B8091E806909187
:10330000E9069595879595958795B7010E948F3722
:1033100020E14EEE50E0BF01D601A81BB90BCD0154
:103320000E940A321150B0F6015078F6E090E8069B
:10333000F090E90664E0F594E7946A95E1F7E0918E
:10334000E806F091E906CF0104E0959587950A9586
:10335000E1F708960091EA061091EB068E159F059D
:103360000CF467C044E0159507954A95E1F76701AD
:1033700054E0CC0CDD1C5A95E1F7BB24BA94BE0C8A
:10338000AA24A394AE0C2091EA063091EB0684E0C7
:10339000359527958A95E1F72C5F3F4F2017310728
:1033A0000CF443C0602F8E2D0E9404238823D1F19A
:1033B000602F8B2D0E940423982E6FEF600F8E2DAF
:1033C0000E940423782E602F8A2D0E940423882EC9
:1033D00061E0600F8E2D0E940423770CE4E09E9E36
:1033E000A001112447294829F8E08F9FC00111242A
:1033F000242F282B8091EA069091EB06B80134E047
:10340000660F771F3A95E1F7681B790B8091E80604
:103410009091E9064EEE50E0D601A81BB90BCD0104
:103420000E9428320F5F1F4FAECFBFEFEB1AFB0A8F
:1034300086CF60911C0770911D07601B710B8091F6
:103440001A0790911B072091C9064CEA50E08E1B89
:103450009F0B0E942832809121079091220787704C
:103460009927892B61F48091BD018F5F81708093D2
:10347000BD018091BC018F5F83708093BC018091FE
:10348000C8068823C9F06091C6067091C70680916E
:10349000EA069091EB06681B790B8091C406909127
:1034A000C506E091E806F091E90624E046E754E01D
:1034B0008E1B9F0B0E942832B5E0BB2E19E0712EA7
:1034C0007B9C8001112400581E4FF801908492FCCF
:1034D00005C0BA94FFEFBF12F3CF4EC0E080F18079
:1034E0008091E8069091E906E81AF90AC280D38033
:1034F0008091EA069091EB06C81AD90AB92DB370EB
:10350000AB2E2B2F44E554E0B601C7010E942832B0
:1035100090FE06C0A8E08A2E912C0C5F1F4F18C0A9
:10352000F8E08F2E912C0A5F1F4FD8018D919C914E
:103530008816990674F6B4016C0D7D1D2A2D44E59C
:1035400054E0C7010E942832E8E08E0E911CEDCFB6
:10355000F801808191818816990608F0BACF2A2D4A
:1035600044E554E0B601C4018E0D9F1D0E9428322F
:10357000B8E08B0E911CECCF80912107909122072F
:1035800083709927892B41F48091BB018F5F63E0A1
:103590000E946F379093BB015CEEE52E55E0F52E4F
:1035A0006AEC462E66E0562E04E916E078E9C72E4E
:1035B00076E0D72EE7E0AE2EE6E0BE2E812C912CF1
:1035C000F50131978081882309F498C08091210703
:1035D00080FF1EC0D5012C91822F880F280F80916B
:1035E000BB01280FF701628173818091EA069091F7
:1035F000EB06681B790B80819181E091E806F091E0
:10360000E90642E353E08E1B9F0B0E94283276C0EE
:103610003701312CD30116968D919C911797F701A4
:10362000208D318D8217930724F49C012A5F3F4F30
:103630001BC03595279535952795032E000C440B17
:10364000550B211531054105510571F02EA73FA7F6
:1036500048AB59AB0E9482362EA53FA548A959A96F
:103660000E940C379B01AC01D30117963C932E931B
:103670001697F50120804091EA065091EB06A09143
:10368000E806B091E906F70162817381808191813A
:103690009DA78CA7F30184819581222069F0F1E038
:1036A0002F1213C0605F7F4F681B790B641B750B73
:1036B0008CA59DA5409606C0621B730B641B750B01
:1036C0002CA53DA5820F931F0AC0605F7F4F681B2A
:1036D000790B641B750B8CA59DA5821B930B20E0B9
:1036E0004CED54E08A1B9B0B0E942232339434E051
:1036F000630E711C44E034128DCF6CCFC4018C5624
:10370000994F3C01DC0117968C911797882309F497
:103710006BC08091210780FD47C015968C9115974D
:1037200018160CF041C016968C9181113DC0D6013F
:103730002C91F8016281738184E0759567958A9573
:10374000E1F7808191810496F5E02F02800D911DB3
:10375000112424E0959587952A95E1F70E9404238A
:1037600081111EC0F6012081D80112966D917C91C5
:10377000139784E0759567958A95E1F76F5F8D9152
:103780009C910496B5E02B02800D911D112424E03C
:10379000959587952A95E1F70E94042381112DC400
:1037A000F6018081819580838091BD01D3011596BA
:1037B0009C91191614F420E001C022E0280FF801B2
:1037C000628173818091EA069091EB06681B790B08
:1037D00080819181E091E806F091E90640E153E0B3
:1037E0008E1B9F0B0E942832D20114968C91149745
:1037F0008823C1F012966D917C9113978091EA060F
:103800009091EB06681B790B8D919C91E091E806F5
:10381000F091E9062091BC0146E754E08E1B9F0B16
:103820000E942832BCE1EB0EF11CE5E04E0E511C6B
:10383000F8E08F0E911C085F1F4F28E0C20ED11CCC
:103840003CE1A30EB11C40E38416910409F0B8CE0C
:103850008091FC06882309F411C1C090F006D09035
:10386000F1068091E8069091E906C81AD90AE0901D
:10387000F206F090F3068091EA069091EB06E81AC2
:10388000F90A51E7E516F104CCF080911607909102
:1038900017079093F5068093F4068091180790918E
:1038A00019079093F7068093F6060E94DB22809119
:1038B0000807811103C089E08093CE01809102073F
:1038C000882399F18091FE06560166E0869FA01834
:1038D000B1081124809109078701080F111D8091FB
:1038E00008078230C0F020E043E357E0B8016B5096
:1038F0007109C50101960E94043280910807833046
:1039000050F020E043E357E0B8016C507109C50165
:1039100007960E940432B8016950710920E043E320
:1039200057E0C50104960E9404328091040720915B
:10393000FE06811131C0245F41EE55E0B701C6019A
:103940000E940A32209107074091000784E0489FB7
:10395000A001112490910107911102C090910207DA
:103960008091FE06382F330F830F880F820F9A0144
:10397000A5E09A9F200D311D11243091040791E09C
:103980009327929F800D1124282F41EE55E0B70117
:10399000C6010E94223272C0220F8091BD01280F01
:1039A0004FED54E0B701C60102970E94043200EFC8
:1039B00016E0F0E18F2E912CADE04A2E512C612CB7
:1039C000712CF7013A967F015601FFE0AF0EB11C52
:1039D000D8015C968D919C915D978330910534F070
:1039E00001975D969C938E935C9708C08E3FBFEFC6
:1039F0009B0724F40196F801958F848FD8015A967D
:103A00008D919C915B9702975B969C938E935A97AE
:103A100097FF0FC05B969C928E925A970E948236B7
:103A2000A30192010E940C3764507109F801758F4F
:103A3000648F2091FE06D8015C966D917C915D9714
:103A40005A968D919C915B976E0D7F1D222341F0BC
:103A500020E04CED54E0F601E81BF90BCF0105C066
:103A600020E04CED54E08A0D9B1D0E9422320C5F39
:103A70001F4FF6E00C3F1F0709F0AACF1FE020E020
:103A800045EA57E060E070E038E0139FC001112480
:103A90000E940A32115098F710E080910807181719
:103AA00070F447E0149FC00111242AE04DE557E06F
:103AB00060E070E002960E9428321F5FEECF21E0A6
:103AC00041E060E08BE50E94312315E0E6E0EE2E58
:103AD000F12C212F30E08091B701A701481B51093B
:103AE00066E0169FC00111242417350714F02BE05F
:103AF00001C02CE04DE557E060E070E088960E9440
:103B00002832115030F78091C906882349F02DE002
:103B10004DE557E060E070E08CE190E00E942832D3
:103B200080910807882309F465C368E0FE01B19617
:103B3000DF01262F1D922A95E9F798E0E0E09DA38A
:103B4000EEA32CE030E038A72FA32091F0063091AF
:103B5000F106A9014E5F5F4F5AA349A34091F206B7
:103B60005091F3064E5F5F4F5CA34BA38E01075E3F
:103B70001F4FD801F62F1D92FA95E9F780E170E00A
:103B80008D8F7E8FAEE0B0E0B8A3AF8FF091FE06D0
:103B900099249394AF2FA925B0E1AB9F200D311D3F
:103BA0001124A0E1FA9F2019310911243A8F298F9D
:103BB0005C8F4B8F9E012F5E3F4FD9011D926A95FE
:103BC000E9F7692F9D8BEE8B8F8B788F9091C406D0
:103BD0003091C506292F998B3A8B9091C60630916A
:103BE000C706492F9B8B3C8BA9A0BAA0CBA0DCA019
:103BF000EDA0FEA00FA118A53A895C8990E00E9473
:103C00002528882321F08091C806811102C2FE0177
:103C1000399688E0DF011D928A95E9F788E0682FE0
:103C20008D871E8680E18F87188A40911A075091F0
:103C30001B074C5F5F4F242F5A87498790911C07C1
:103C400030911D07492F9B873C87A9A0BAA0CBA024
:103C5000DCA0EDA0FEA00FA118A53A855C8570E060
:103C600090E00E942528882349F080E80E945E2A7F
:103C7000882321F08091C9068111D6C1B5E0BBA788
:103C8000FE013196FAA7E9A778E0572E412CFBA553
:103C90002F2E312C25E0229DC001239D900D112453
:103CA000AC014653594F3A01DA0114968C9114979E
:103CB0008823F1F1E9A5FAA528E011922A95E9F700
:103CC0004AE050E05E834D838CE090E098878F83DC
:103CD0008D909C9011979A82898212968D919C91D9
:103CE00013979C838B8380910407882309F4AEC1CA
:103CF000A980BA80CB80DC80ED80FE800F811885A2
:103D0000298D3A8D4B8D5C8D6D8D7E8D8F8D98A11B
:103D10000E942528882309F499C18091FE068823F2
:103D200009F4E5C19FEF891A990AD3018D929C92FB
:103D3000A10163E0440F551F6A95E1F75DA74CA709
:103D40004C56594F4A01DA0117968C9117978823E0
:103D500009F488C0E9A5FAA528E011922A95E9F7A7
:103D6000E52C5D824E82052D5F8248866D907C90A9
:103D70001197A62C7A82698212968C9112971396CB
:103D80009C91C82E8B839C83BA80D92EF42C142D41
:103D9000298D3A8D4B8D5C8D6D8D7E8D8F8D98A18B
:103DA0000E942528882309F4A9C18091040788234B
:103DB00009F4A4C1D40115968C91159781501596DC
:103DC0008C931597E1E01696EC931816BCF12091B0
:103DD000FE068091F0069091F106222309F4A3C11A
:103DE0003FEF631A730AD40111967C926E92079783
:103DF000681679061CF117961C928091080783308B
:103E000008F09EC18F5F809308078091930790917F
:103E10009407A0919507B0919607C296A11DB11D78
:103E20008093930790939407A0939507B093960778
:103E300064E670E088EC90E00E94E831A980BA80E6
:103E4000CB80DC80ED80FE800F81188529A13AA10E
:103E50004BA15CA16DA17EA18FA198A50E942528F0
:103E6000811152C1BCE1B29DF001B39DF00D11244E
:103E7000E451FA4F828D882309F468C0238D808134
:103E80009181222381F02130F9F440969A8389832D
:103E9000828193819C838B83808D918D9E838D8382
:103EA00020E130E00EC09A838983208D318D82819C
:103EB0009381821B930B9C838B83E0E1F0E0FE8374
:103EC000ED8338872F8310C0208D318D821B930B9B
:103ED0009A838983828193819C838B833E832D8304
:103EE00040E150E058874F83A980BA80CB80DC80C6
:103EF000ED80FE800F81188529A13AA14BA15CA11C
:103F00006DA17EA18FA198A50E9425288823F1F09C
:103F1000809102078823D1F0BCE1B29DF001B39DEE
:103F2000F00D1124E451FA4F238D211148C18091E5
:103F3000FA069091FB068B3591050CF03DC1059674
:103F40009093FB068093FA060E94F0228091FD0672
:103F5000811142C029E0229DC001239D900D1124B2
:103F6000DC01A058BE4F4D0118968C91189782FF26
:103F700033C0AC901196BC9011971296CC901297CA
:103F80001396DC9013971496EC9014971596FC906A
:103F9000159716960C91169717961C9129A13AA180
:103FA0004BA15CA16DA17EA18FA198A50E9425289F
:103FB000882391F00E94DB222091F2063091F306D3
:103FC000F401828193812817390734F4E8E2F0E0A4
:103FD000F093FB06E093FA06FBA5F150FBA7FF3F29
:103FE00009F055CE07C18091F4069091F5064496EC
:103FF0009093F5068093F40651C8D6012C91F801F0
:1040000080819181820F911D27FD9A9591838083F4
:10401000CBCB1092C8069092C90668EC70E084EA97
:1040200091E00E94E831F3CD809108078093BA01B6
:1040300081E08093B9011092B801809197078F5F5A
:104040008093970786E08093CE0118CEA980BA802E
:10405000CB80DC80ED80FE800F81188529A13AA1FC
:104060004BA15CA16DA17EA18FA198A50E942528DE
:10407000882309F45DCE25E0229DF001239DF00DFB
:104080001124E653F94F14828091B7018150809337
:10409000B7018091B6018F5F8093B601809192073E
:1040A0008F5F8093920768EC70E080E991E00E9456
:1040B000E8312091B7018091930790919407A091E6
:1040C0009507B0919607211105C08C509E4FAF4FB8
:1040D000BF4F04C088539F4FAF4FBF4F809393078C
:1040E00090939407A0939507B093960721CEB1E0E3
:1040F0008B1A9108F301918280821ACEECA5FDA55E
:10410000EC56F94F16829ACE0CA51DA50C56194FE8
:10411000D80115968C9118160CF0A4CE8091FD064E
:104120008111A0CE22C0B1E06B1A7108F401718236
:1041300060820F96861597050CF480CE17825DCEAF
:104140008091930790919407A0919507B09196075D
:104150008C599F4FAF4FBF4F809393079093940715
:10416000A0939507B093960750CE0E94DB2228E2D9
:1041700030E03093FB062093FA068091F006909190
:10418000F106D8012D913C91821B930B97FD11C034
:10419000853091053CF4029735E0880F991F3A95D8
:1041A000E1F702C080E690E09093F9068093F8066C
:1041B00059CE80EA9FEFF8CF80E690E0C1CE8091A3
:1041C000F8069091F906213041F48133910514F4F9
:1041D00005960BC086E390E008C0803D5FEF950731
:1041E00014F0059702C08AEC9FEF9093F906809334
:1041F000F806AACEE1960FB6F894DEBF0FBECDBF8B
:10420000DF91CF911F910F91FF90EF90DF90CF90B2
:10421000BF90AF909F908F907F906F905F904F90E6
:104220003F902F900895109297071092B601109228
:1042300092071092BA01109293071092940710926D
:104240009507109296071092C10183E080930807AA
:1042500086E08093CE011092B90181E08093C00185
:104260001092C2010895CF92DF92EF92FF92CF9306
:10427000C5E05CE15C9FF0011124E451FA4FDF01DD
:104280005A96328D31111AC07C0184E0EE0CFF1C6D
:104290008A95E1F76B0194E0CC0CDD1C9A95E1F76F
:1042A000D182C082F382E28280E1489FA001112482
:1042B000518F408F81E08C93238F02C0C150D0F684
:1042C000CF91FF90EF90DF90CF90089520E04FE3E3
:1042D00051E260E070E080E290E00E940A3221E06A
:1042E0004FE351E260E270E080E290E00E940A3227
:1042F0008CE00E945E2A882349F081E08093CE0101
:1043000064E170E089EA91E00C94E83108950F933C
:104310001F93CF93DF93809121079091220787709D
:104320009927892B31F48091BE018F5F8F71809323
:10433000BE0100E010E0C0E02C2F4EE05BE160E049
:1043400070E0C8010E940A32CF5F005E1F4FC43088
:1043500099F720E045E254E26DE270E085E590E0F7
:104360000E940A322091CD014DED53E26BE270E0E4
:104370008FE490E00E940A32C091BE01D0E08E012D
:104380000251154EF801249143ED5AE169E070E0C5
:1043900089E090E00E940A32F801249143EB5AE14F
:1043A0006DE070E08FE090E00E940A32FE01ED5671
:1043B000F54E249141E55AE162E270E08DE690E02D
:1043C000DF91CF911F910F910C940A32CF93C0913E
:1043D000C101CF5FC093C101C03A50F420E040E179
:1043E0005FE164E070E082E290E0CF910C940A32E9
:1043F0000E948721CB3F28F48CE00E945E2A88230C
:1044000051F081E08093CE0164E170E089EA91E0AF
:10441000CF910C94E831CF91089584E490E00E940C
:1044200024338093970785E490E00E94243380939F
:1044300092071092B6011092BA0163E977E087E41F
:1044400090E00E945B321092C10183E080930807E4
:1044500086E08093CE011092B90181E08093C00183
:104460001092C2010895CF930E94872120E049EB6A
:1044700055E262E170E085E390E00E94283280E13D
:104480000E945E2A882349F081E08093BF0164E1A5
:1044900070E08CE291E00E94E83180E80E945E2AA0
:1044A000882341F01092BF0164E170E08CE291E05A
:1044B0000E94E831C091BF0189E0C89FB00111247A
:1044C0006E5E7F4F20E043E355E280E390E00E9480
:1044D000043284E00E945E2A882359F0C65FC093AC
:1044E000CE011092BF0164E170E089EA91E00E9480
:1044F000E83188E00E945E2A882351F081E08093B1
:10450000CE0164E170E089EA91E0CF910C94E8314A
:10451000CF9108950E94872120E046EB50E269E0A8
:1045200070E083E390E00E94283280E10E945E2ADE
:10453000882321F080910101853048F180E80E94B4
:104540005E2A882321F080910101833050F58CE0B0
:104550000E945E2A882351F0809101018093CE0150
:1045600064E170E089EA91E00E94E8318091010104
:1045700090E0019729E0289FB001299F700D112438
:1045800020E043E355E28EE290E00C9404328F5F2A
:104590008093010164E170E08CE291E00E94E831D7
:1045A000CDCF81508093010164E170E08CE291E015
:1045B0000E94E831CCCF80910807882381F01092C7
:1045C000020781508093080764E670E084EA91E076
:1045D0000E94E83181E08093FD061092050708955E
:1045E0008091210780FD0FC00E94823624E130E0D7
:1045F00040E050E00E940C37CB01805C9E4F6EE1A2
:1046000070E00C94E8310895883138F5683138F558
:10461000A0919707B0E0AA0FBB1FAE5EBE4FE82F78
:10462000082E000CFF0B23E0F595E7952A95E1F79E
:1046300023E06202E00DF11D11242D913C91E20F67
:10464000F31FE491F0E087709F0102C03595279534
:104650008A95E2F7C9018170089581E0089580E0AC
:1046600008956F927F928F929F92AF92BF92CF9256
:10467000DF92EF92FF920F931F93CF93DF93CDB70B
:10468000DEB72B970FB6F894DEBF0FBECDBFF82E66
:10469000862E942E213029F1223009F061C08091BC
:1046A000970790E04AE08E010F5F1F4FB801019617
:1046B0002B870E949036F80101900020E9F731978E
:1046C000E01BF10BAE2E2B85022F0E1B682D70E028
:1046D000695071098F2D90E020E044E556E2029781
:1046E0003DC06091930770919407809195079091D8
:1046F00096072AE08E010F5F1F4FA8010E949B368C
:10470000F80101900020E9F73197E01BF10BAE2E84
:1047100006E00E1BC82CD12C32E0C31AD1086F2C36
:10472000712C20E049E956E2B601C30102970E94CC
:104730000A3215E020E049E856E2B601C30137E04D
:10474000139F800D911D11240E940A32115090F781
:1047500021E049E956E2B601C30189960E940A3276
:10476000E12C002E000C110BC82CD12C6F2C712CBD
:104770008E2D90E0801791070CF581E0981681F05E
:1047800032E0931219C020E04CE056E2B601C301BA
:1047900037E0E39E800D911D11240E940A320CC067
:1047A00020E04DE557E0B601C30136E0E39E800D01
:1047B000911D11240E942832E394DACF8F2D90E0CE
:1047C00026E0209F7001219FF00C1124E80EF91EB5
:1047D00027E0209F6001219FD00C1124C80ED91E14
:1047E000712C0A2C000CBB08082D10E0872D90E0DE
:1047F0008A159B0564F5E1E0F0E0EC0FFD1FE80F82
:10480000F91F208121331CF020532A3008F020E0CA
:1048100081E0981679F032E0931217C04CE056E22E
:10482000B801C60137E0739E800D911D11240E94CE
:104830000A320BC04DE557E0B801C70136E0739E60
:10484000800D911D11240E9428327394CFCF2B9696
:104850000FB6F894DEBF0FBECDBFDF91CF911F9191
:104860000F91FF90EF90DF90CF90BF90AF909F900F
:104870008F907F906F9008952F923F924F925F920A
:104880006F927F928F929F92AF92BF92CF92DF9260
:10489000EF92FF920F931F93CF93DF93CDB7DEB7C5
:1048A00062970FB6F894DEBF0FBECDBF809121078F
:1048B0009091220764E170E00E947B37892B09F018
:1048C00062C01092B8018091B601E091C3018823C3
:1048D00079F081508093B60180919307909194076D
:1048E000A0919507B09196074496A11DB11D12C0E5
:1048F0008091BA01882321F181508093BA0180917F
:10490000930790919407A0919507B09196074E96C2
:10491000A11DB11D8093930790939407A0939507D1
:10492000B093960781E08E0F8093C301F0E0E355CA
:10493000F84D849166E970E090E00E94E83123C070
:1049400081E08093B8011092B9019091C20189274A
:104950008093C201EA3080F481E08E0F8093C3011E
:10496000F0E0E355F84D849168EC70E090E00E942F
:10497000E8318AE08093C30180919707873218F06D
:1049800089E08093CE0167E977E084E490E00E94BB
:10499000B43262E977E085E490E00E94B43263E9E2
:1049A00077E087E490E00E94813280919707873218
:1049B00080F420E04FE357E264E070E083E290E0AF
:1049C0000E940A3222E042E06DE08EE40E94312330
:1049D00011C01A821982CE0101960E94A42C19825C
:1049E0001A821B821C82BE016F5F7F4F87E490E0BA
:1049F0000E94813221E042E061E38BE20E94312398
:104A00008091B901811105C08091B801811122C046
:104A1000ADC2F090BA018091B601F80E2F2D39EF9A
:104A20003203800111240F5B1F4FE12CEF1461F35F
:104A30008091B601E81610F420E001C021E04DE0BD
:104A400057E26BE170E0C8010E942832E394025FF4
:104A50001F4FECCF8091C201882349F020E043EA48
:104A600056E26DE170E086E290E00E9428328CE030
:104A70000E945E2A882309F479C21092C30164E17E
:104A800070E089EA91E00E94E8311092F1061092FC
:104A9000F0061092F3061092F20680E890E09093F0
:104AA000F5068093F4061092F7061092F60610921F
:104AB000F9061092F8061092FB061092FA0681E0B1
:104AC0008093FC068093FD0610920507109206075E
:104AD0001092FE061092FF06109200071092010736
:104AE00010920207809303071092040783E08093DB
:104AF00008071092090700EF16E090E1C92ED12CAB
:104B0000E12CF12C0E9482364B015C010E9482361E
:104B1000A70196010E940C37F801738F628FC501BF
:104B2000B401A70196010E940C37F801758F648FBC
:104B30000C5F1F4FF6E00C3F1F0721F71092E906AC
:104B40001092E80680E491E09093EB068093EA06E9
:104B50001092ED061092EC061092EF061092EE06FF
:104B60001092B70105E0F02E80E1482E512C612C07
:104B7000712CEE24E394CF2CD12C2CE12C9DF00150
:104B80002D9DF00D1124E451FA4F118210821382F1
:104B900012823CE1F39E1001112400E010E00E941B
:104BA00082364B015C010E9482369801220D331D32
:104BB000A90144515A4F5E834D83A30192010E9483
:104BC0000C37ED81FE8175836483C501B401A301B7
:104BD00092010E940C37ED81FE81778366830C5F22
:104BE0001F4F00311105D9F62CE12C9DF0012D9DB0
:104BF000F00D1124E451FA4F118E108E128E138E87
:104C000039E03C9DF0013D9DF00D1124E058FE4F30
:104C10001182108213821282158304831783068304
:104C2000E086F60113E0EE0FFF1F1A95E1F7EC5650
:104C3000F94F118210821382128217824EE145834E
:104C4000E482168255E05C9DF0015D9DF00D11241B
:104C5000E653F94F11821082138212821482FA9461
:104C60008FEFF81288CFE0919707F0E0EE0FFF1F6B
:104C7000EE5EFE4FC080D180E8E4CE0ED11CF6017E
:104C8000849110E09924939479E0372EE8E0AE2ED9
:104C9000B12CF4E06F2EA5E08A2EB7E05B2E8F3F9B
:104CA00009F461C1F601E10FF11D249164916F7166
:104CB000262E52E0452E410E81E0810FF601E80FCD
:104CC000F11D84918F71782E822F807E8034A9F11E
:104CD000B0F48823F1F0803209F02BC1F0E17F9E1F
:104CE000C001112490931B0780931A0720E1629F53
:104CF000B001112470931D0760931C072EC18038EA
:104D000009F475C0803A09F4EEC0803609F011C18B
:104D10003EC0872D880F1092160780931707660FE5
:104D200010921807609319071092F4068093F50605
:104D30001092F6066093F70610C1EBE9F6E020E06A
:104D400030E0808181111CC040E1249EB00111241B
:104D500043E0220F331F4A95E1F7D901AC56B94F12
:104D600050E1759EC001112411969C938E93685F4B
:104D70007F4F13967C936E93129717969C92EDC07B
:104D80002F5F3F4F389626303105D9F6E6C01D5FBC
:104D9000F601E40DF11DE491872D90E070E0E03420
:104DA00058F498878F837A87698720E04E2F6F8128
:104DB000788589859A850DC04E2F4F73E03C68F445
:104DC0009C878B877E876D8721E06B857C858D85B1
:104DD0009E850E943321412EC0C0988B8F877A8B8D
:104DE000698B22E06F85788989899A89F2CFE42DD1
:104DF000F0E03197EC0DFD1DE490A8E8B1E020E073
:104E000030E08C9182FD67C0F12C85E0F594E79449
:104E10008A95E1F78FEFE81AF80A94E0EE0CFF1C90
:104E20009A95E1F7329E8001339E100D11240058AF
:104E30001E4FE0E17E9E90011124F8013183208312
:104E4000F0E12F9E90011124F801338322836FEF4C
:104E5000620D872D0E940423882339F0F8015086C3
:104E6000F582E482B782A68278C061E0620D872D68
:104E70000E940423882361F0F8018086F582E48291
:104E8000B782A6828281938108969383828365C0CC
:104E9000622D8FEF870D0E940423882339F0F801DB
:104EA0006086B582A482F782E68257C0622D81E0D7
:104EB000870D0E940423882309F44FC026E0F801DF
:104EC0002087B582A482F782E6828081918108964C
:104ED0009183808342C02F5F3F4F19962630310562
:104EE00009F08FCF3AC085E0889ED0011124A653E7
:104EF000B94FFD01349614962C911497211116C0C8
:104F00008091B7018F5F8093B70130E1739EC0013C
:104F1000112440E1249EB001112413967C936E93DA
:104F2000129702968D939C93908217C08150E0F661
:104F300014C050E1759EC00111249093C506809362
:104F4000C40680E1289EB00111247093C7066093C7
:104F5000C6069092C8061092C906F601E40DF11D2E
:104F60008491142D9CCE87E08093CE0162960FB67B
:104F7000F894DEBF0FBECDBFDF91CF911F910F918F
:104F8000FF90EF90DF90CF90BF90AF909F908F9069
:104F90007F906F905F904F903F902F90089520E00A
:104FA00045E254E262E070E08BE290E00E940A3257
:104FB0002091CD014DED53E260E070E085E290E09C
:104FC0000E940A3220E04BE753E260E370E088E29F
:104FD00090E00E940A3263E977E08BE490E00E945F
:104FE0005B3286E490E00E94243320E08A3E39F46C
:104FF00047E653E26CE170E085E190E006C041E6EF
:1050000053E26CE170E08CE190E00E940A3220E013
:1050100041E453E26CE170E08EE190E00E940A32DC
:1050200021E042E06EE187E30E9431238CE00E94A0
:105030005E2A882349F081E08093CE0164E170E02C
:1050400089EA91E00C94E8310895AF92BF92CF9233
:10505000DF92EF92FF920F931F93CF93DF93CDB721
:10506000DEB760970FB6F894DEBF0FBECDBF2983C1
:105070003A834B835C836D837E838F839887A98675
:10508000BA86CB86DC86ED86FE860F87188B6B8111
:105090007C812B853C85A985BA85E981FA814D8182
:1050A0005E814E0F5F1FA417B507B0F48D859E85F6
:1050B0008A0F9B1FE817F90778F48F819885860F70
:1050C000971F2817390744F48F859889280F391FAF
:1050D00081E0621773070CF080E060960FB6F894D9
:1050E000DEBF0FBECDBFDF91CF911F910F91FF901B
:1050F000EF90DF90CF90BF90AF900895EF92FF9226
:105100000F931F93CF93DF931F92CDB7DEB77C0130
:10511000FC0100811181C80169830E94F636698112
:10512000681719F0C8010E94FE36C7010F90DF9181
:10513000CF911F910F91FF90EF900895CF93DF9340
:1051400000D0CDB7DEB70E94872120E045EA54E2C7
:1051500069E070E083E390E00E94283280E10E94E1
:105160005E2A882341F00E94553264E170E08CE2AF
:1051700091E00E94E83180E80E945E2A81110E943D
:1051800050326091980789E0689FB00111246E5EEB
:105190007F4F20E043E355E286E390E00E94043233
:1051A0008CE00E945E2A882399F06091980782E043
:1051B00090E09A838983CE0101960E947E2881E047
:1051C0008093CE0164E170E089EA91E00E94E831C9
:1051D0000F900F90DF91CF910895CF92DF92EF92D1
:1051E000FF920F931F93CF93DF936C017A018B0192
:1051F000C0E0D0E0CE15DF0589F0D8016D918D01BA
:10520000D601ED91FC910190F081E02DC601099548
:10521000892B11F47E0102C02196ECCFC701DF91EA
:10522000CF911F910F91FF90EF90DF90CF90089555
:105230003FB7F8948091D0019091D101A091D20113
:10524000B091D30126B5A89B05C02F3F19F0019658
:10525000A11DB11D3FBFBA2FA92F982F8827820FFC
:10526000911DA11DB11DBC01CD0142E0660F771F4C
:10527000881F991F4A95D1F708950E94A9378F92E8
:105280009F92AF92BF92CF92DF92EF92FF926B010B
:105290007C010E9418294B015C01C114D104E10476
:1052A000F104F1F00E941829DC01CB018819990959
:1052B000AA09BB09883E9340A105B10570F321E01E
:1052C000C21AD108E108F10888EE880E83E0981E22
:1052D000A11CB11CC114D104E104F10419F7DDCF04
:1052E000FF90EF90DF90CF90BF90AF909F908F9006
:1052F00008951F920F920FB60F9211242F933F9390
:105300008F939F93AF93BF938091D4019091D501D8
:10531000A091D601B091D7013091CF0123E0230FA6
:105320002D3720F40196A11DB11D05C026E8230FDD
:105330000296A11DB11D2093CF018093D4019093BB
:10534000D501A093D601B093D7018091D00190915F
:10535000D101A091D201B091D3010196A11DB11D3F
:105360008093D0019093D101A093D201B093D30147
:10537000BF91AF919F918F913F912F910F900FBE51
:105380000F901F9018951F920F920FB60F92112435
:105390002F933F934F935F936F937F938F939F933D
:1053A000AF93BF93EF93FF938091C9019091CA018E
:1053B000A091CB01B091CC01892B8A2B8B2B81F151
:1053C0008091C80181110BC098B180E4892788B908
:1053D0008091C701882319F088B1805888B98091DD
:1053E000C9019091CA01A091CB01B091CC011816CE
:1053F00019061A061B06B4F48091C9019091CA01DE
:10540000A091CB01B091CC010197A109B109809382
:10541000C9019093CA01A093CB01B093CC0102C003
:105420000E943A31FF91EF91BF91AF919F918F917F
:105430007F916F915F914F913F912F910F900FBE90
:105440000F901F9018958091C601E091C401F091D2
:10545000C501882349F0CF0102969093C50180933E
:10546000C401859194910895CF0102969093C5014E
:105470008093C401808191810895CF93DF931F921F
:10548000CDB7DEB76983DC01ED91FC910280F38139
:10549000E02D41E050E0BE016F5F7F4F09950F9016
:1054A000DF91CF91089583E08093E9008091F2002D
:1054B000882319F08AE38093E80008952091240757
:1054C000282329F490912307982381E009F480E0B0
:1054D00008956F927F928F929F92AF92BF92CF92D8
:1054E000DF92EF92FF920F931F93CF93DF9300D041
:1054F00000D0CDB7DEB7DC014115510509F4F2C18A
:10550000FA011491319694916A01F2E0CF0ED11C08
:10551000E12EF12C222309F1492F46954695469517
:10552000E42FF0E041E050E0892F877011F440E073
:1055300050E04E0F5F1FE49EF001E59EF00DF49EDB
:10554000F00D1124033011F4EE0FFF1F2E9FA00168
:105550002F9F500D1124C40ED51E0F3F09F402E0F9
:10556000AD014E0D5F1D141615060CF0BBC1A03821
:10557000B1050CF0B7C19B01290F311D121613069E
:105580000CF0B0C1603471050CF0ACC1C114D10491
:1055900009F4A8C19B0177FF04C022273327261BEB
:1055A000370B322F3770FB0177FD379623E0F595E7
:1055B000E7952A95E1F72E2F77FF07C0332329F0CF
:1055C0002FEF2E0F88E0831B382FB7FF05C066270B
:1055D00077276A1B7B0B02C060E070E04038510502
:1055E00024F050E85A1B952E01C0912E961AA22E37
:1055F000022E000CBB082F3F1CF48A2D809501C0A1
:1056000080E041E0592F577009F440E09695969557
:105610009695940FA90EB11C49E0A416B10414F09C
:1056200098E0921B981B280F40E82403A00DB11DA1
:105630001124A60FB71F819F600D711D1124360123
:10564000660E771E41E050E06A01032E02C0CC0CCA
:10565000DD1C0A94E2F7033009F400C1A0F4013024
:1056600009F4B1C0023009F03DC18FEF8C9DB0014B
:105670008D9D700D1124609570957C836B838C805B
:10568000492F420F29C00A3F31F00B3F09F02AC1D0
:10569000492F420F84C0492F420F4FC0F301E00F42
:1056A000F11FE491EC9D5001ED9DB00C1124BA82E4
:1056B000A98227FD05C0FC0150815623A52AA0829E
:1056C000311113C00F5F1F4F0196091538F32F5F7B
:1056D0006E0C7F1CA058BF4F241709F403C1CD01E5
:1056E00084529E4F00E010E0F0CF27305CF7FC01C1
:1056F000E058FF4F50815821BA805B295083E2CF98
:10570000F301E60FF71FE491EC9D8001ED9D100D74
:1057100011241A83098327FD04C0FC015081052B45
:105720000083311113C06F5F7F4F0196691540F3FD
:105730002F5F6E0C7F1CA058BF4F241709F4D2C0F6
:10574000CD0184529E4F60E070E0F0CF27305CF7CF
:10575000FC01E058FF4F10815A81512B5083E3CF59
:10576000F301E00FF11FE491EC9DC001ED9D900D60
:1057700011249A83898327FD05C08095FB019081C0
:1057800089238083311114C00F5F1F4F6F5F7F4FDC
:10579000091530F32F5F6E0C7F1CA058BF4F2417E4
:1057A00009F4A0C0BD0164527E4F00E010E0F0CFCC
:1057B000273054F7FB01E058FF4F8A818095908194
:1057C00089238083E1CF892E820EA301CB01861924
:1057D0009709281509F486C0BD0164527E4F5B010C
:1057E00000E010E00915A0F5F801E80FF91FE40F3B
:1057F000F51FE491EC9DB001ED9D700D11246095B5
:1058000070957C836B83FA01E00FF11FE491EC9DAE
:105810003001ED9D700C11247A82698227FD05C04C
:10582000F50170816723662A6082332359F027309F
:105830004CF4F501E058FF4F70816C8167237A8149
:10584000672B60830F5F1F4FFFEFAF1ABF0ACACFEE
:105850002F5F4E0D5F1DA058BF4FBBCFA92CB12CA1
:10586000F301E60FF71FA452BE4F60E870E06A191B
:105870007B09EA18FB088701000F111F592D492FDA
:10588000792CE32ECF93DF93ED01EF96EF962296DE
:105890008590A590EE2059F08C9C4001AC9C500165
:1058A00027302CF4F880B094FB20F928F9922223B9
:1058B0003AF0FC90A094FA20F828FD920C94612C08
:1058C00011965A9529F74A9551F0572D2395112491
:1058D000E00FF11DA60FB11DC60FD11DD9CFDF916D
:1058E000CF9111240F900F900F900F90DF91CF91D7
:1058F0001F910F91FF90EF90DF90CF90BF90AF90EE
:105900009F908F907F906F90089580E0ECEDF1E094
:1059100081118FEF0024819381938193819303946C
:10592000D1F708958091DC018EBDEDEDF1E081911C
:105930000DB407FEFDCF8EBD85E0EC3DF807B9F74D
:105940000DB407FEFDCF08950F931F93CF93DF9300
:1059500000D0CDB7DEB78C01FC01608184E490E01B
:105960009A838983CE0101960E947E28F801618185
:1059700085E490E09A838983CE0101960E947E2877
:10598000C8010F900F90DF91CF911F910F91089553
:10599000FC018091DB01811103C08FEF9FEF08951F
:1059A0009FB7F89482E08093E9002091F20030E004
:1059B0001216130614F421E030E02115310559F0D8
:1059C000289884E68093DA018091F10080838091A9
:1059D000F200882319F09FBFC90108958BE68093D8
:1059E000E800F9CF2FB7F89483E08093E900909115
:1059F000E800892F807295FF04C09091F20080E446
:105A0000891B2FBF08958F929F92AF92BF92CF9222
:105A1000DF92EF92FF920F931F93CF93DF935C017E
:105A20006B017A0180910901882309F45BC08091A0
:105A3000DB01882309F456C08091D90180FF05C09D
:105A40008091E00082608093E000E70110E00AEFBF
:105A500083E0882E9AE3992E2097D9F10E94F22CA8
:105A600081110AC0015009F43DC061E070E080E09E
:105A700090E00E943F29F0CF282F30E0C217D307D3
:105A80000CF48C2F4FB7F8948092E9009091E800C5
:105A900095FF1DC0282F30E0C21BD30BF601982FB5
:105AA000915020F081918093F100FACFC20ED31E65
:105AB000112319F09092E80009C08091E80085FD5B
:105AC00006C09092E80011E0209709F010E04FBF67
:105AD000C3CF1111C3CF5D9884E68093D8011E1403
